:020000040800F2
:10000000A804002001010008A51B0008A514000891
:10001000A11B0008950600085F22000800000000F0
:10002000000000000000000000000000D11F0008D8
:100030009906000800000000A51F0008D31F000853
:100040001B0100081B0100081B0100081B01000820
:100050001B0100081B0100081B0100081B01000810
:100060001B0100081B0100081B0100081B01000800
:100070001B0100081B0100081B0100081B010008F0
:100080001B0100081B0100081B0100081B010008E0
:100090001B0100081B0100081B0100081B010008D0
:1000A0001B0100081B0100081B0100081B010008C0
:1000B0001B0100081B0100081B0100081B010008B0
:1000C0001B0100081B0100081B0100081B010008A0
:1000D0001B0100081B0100081B0100081B01000890
:1000E0001B0100081B0100081B010008DFF80CD0F1
:1000F00000F040FA00480047D92B0008A80400206F
:100100000648804706480047FEE7FEE7FEE7FEE7B1
:10011000FEE7FEE7FEE7FEE7FEE7FEE74120000818
:10012000ED000008202A04DB203A21FA02F0002129
:10013000704721FA02F3D040C2F1200291400843F7
:1001400019467047D2B201E000F8012B491EFBD2DC
:1001500070470022F6E710B513460A4604461946D2
:10016000FFF7F0FF204610BD421C10F8011B0029CC
:10017000FBD1801A704730B50B4601460020202283
:10018000012409E021FA02F59D4205D303FA02F5A4
:10019000491B04FA02F52844151EA2F10102F1DC04
:1001A00030BD2DE9F05F0546002092469B4688460B
:1001B0000646814640241BE02846414647462246E3
:1001C000FFF7B0FF53465A46C01A914110D311466B
:1001D0001846224600F0E0F92D1A67EB01084F4659
:1001E00022460120002100F0D7F917EB00094E410B
:1001F000201EA4F10104DFDC484631462A4643466E
:10020000BDE8F09F2DE9FE4F804681EA0300C00F54
:100210000C46009021F0004123F00045B8EB0200AD
:10022000A94105D24046214690461C460B4602464F
:1002300023F00040104347D0270DC7F30A00C3F353
:100240000A510290401A019040286BDAC3F3130060
:1002500040F4801B0098924620B10023D2EB030AA1
:1002600063EB0B0B01985946C0F14002504600F079
:1002700093F906460D4650465946019A00F09BF9FF
:1002800010EB08006141002487EA115284EAE77309
:100290001A4340D0009A62B3019A012A4FEA0752EA
:1002A00015DC001B61EB02014FF0004202EA07522D
:1002B000CDE90042001C41F5801132462B4600F08A
:1002C0009BF903B0BDE8F08F40462146F9E7001BDB
:1002D00061EB0201001C41F5801300185B412018FE
:1002E000A2F5001747EB030140EAD570B6196D413E
:1002F00011E06D084FEA360645EAC0754FEA07522D
:10030000001B61EB0201001C41F5801149084FEA16
:1003100030000019514132462B4603B0BDE8F04F82
:1003200000F05BB90098012240000023D0EB0202EC
:1003300063EBE073009821464FEAE074B8EB0000ED
:1003400061EB0401E9E783F000435BE781F00041E2
:1003500058E72DE9FE4F81EA030404F0004421F040
:10036000004100944FF0000B23F0004350EA0104D9
:100370005ED052EA03045BD0C3F30A54C1F30A55BA
:100380002C44A4F2F3340194A0FB0254C1F31301F2
:1003900041F48011C3F3130343F4801301FB0244BF
:1003A00000FB034E840A970A44EA815447EA8357C4
:1003B000A4FB076802958D0A05FB07854FEA932C7D
:1003C00004FB0C542705029D4FEA065847EA1637EE
:1003D000B5EB08056EEB070C870E920E47EA811706
:1003E00042EA8312A7FB0201B6EB0B0164EB0004A7
:1003F0002B0D43EA0C335E1844EB1C50DA46514691
:10040000E7FB0201C5F313044FEA0B3343EA14532D
:100410004FEA0432019C43EA0603A4F10C0402945F
:10042000009CCDE900B400F0E7F803B0BDE8F08F20
:1004300000200146F9E72DE9F04D81EA030404F0BC
:10044000004B21F0004514464FF0000A23F0004114
:1004500050EA050220D054EA01021DD0C5F30A5724
:100460000246C5F31303C1F31300C1F30A5640F467
:10047000801543F48013A7EB0608101BD64608F23C
:10048000FD3873EB050002D308F1010801E0921872
:100490005B41B8F1000F03DA00200146BDE8F08DA2
:1004A00000204FF48011064684460EE0171B73EBC4
:1004B000050705D3121B63EB050306434CEA010C49
:1004C00049084FEA300092185B4150EA0107EDD12C
:1004D00052EA030012D082EA040083EA05010843CD
:1004E00005D0101BAB4106D20122002306E00022FA
:1004F0004FF0004302E06FF0010253101AEB0600C8
:100500004CEB085110EB0A0041EB0B01BDE8F04D3C
:1005100000F063B8C1F30A52C1F3130140F2FF3394
:1005200041F480119A4202DA00200146704740F2FD
:1005300033439A42A2F2334202DC5242FFF7F2BD49
:1005400000F02AB830B5041E71F1000404DB4FF04E
:100550000044404264EB0101141E73F1000405DB0A
:100560001C464FF00043524263EB0403994208BF1C
:10057000904230BD064C074D06E0E06840F00103B4
:1005800094E8070098471034AC42F6D3FFF7B2FD69
:10059000302C0008502C0008202A04DB203A00FAF6
:1005A00002F1002070479140C2F1200320FA03F3CA
:1005B000194390407047202A06DBCB17203A41FAB6
:1005C00002F043EAE07306E041FA02F3D040C2F1E0
:1005D0002002914008431946704710B5141E73F16C
:1005E000000408DA401C41F1000192185B411A43F3
:1005F00001D120F0010010BD2DE9F04D92469B463F
:1006000011B1B1FA81F202E0B0FA80F220329046E4
:10061000FFF7C2FF04460F4640EA0A0041EA0B0119
:1006200053465A46084313D0114653EA010019D0E5
:10063000C8F140025046FFF775FD05460E4650468C
:1006400059464246FFF7A8FF084305D0012004E0C1
:1006500020463946BDE8F08D0020054346EAE076A5
:100660002C4337430A986305E40AA0EB08000022F4
:10067000FD0A44EA47540A3002D500200146E9E762
:10068000010510196941DDE9084500196941BDE816
:10069000F04DA2E700BFFEE77047704770B5044613
:1006A00000F0AEF906462546681C10B104480078F3
:1006B000054400BF00F0A4F9801BA842FAD370BD26
:1006C000080000202DE9F8470346002294466EE119
:1006D0004FF0010808FA02F4D1F8008008EA04009B
:1006E000A0427DD1DFF8DCA2D1F80480A8EB0A0992
:1006F000D0453AD014DCB8F1030F50D009DCB8F182
:10070000000F31D0B8F1010F1CD0B8F1020F49D160
:1007100020E0B8F1110F18D0B8F1120F42D11EE04D
:10072000B9F5881F25D006DCB9F5803F20D0B9F592
:10073000801F37D11AE0B9F5001F18D0B9F5041F92
:1007400030D117E0D1F80CC02DE0D1F80C8008F1C1
:10075000040C28E0D1F80C8008F1080C23E0D1F853
:100760000C8008F10C0C1EE000BF00BF00BF00BFF2
:1007700000BF00BFD1F80880B8F1000F02D14FF0E0
:10078000040C0BE0D1F80880B8F1010F03D14FF051
:10079000080C1C6102E04FF0080C5C6103E04FF0B4
:1007A000000C00E000BF00BFFF2801D8984601E020
:1007B00003F104084646FF2802D84FEA820803E006
:1007C000A2F108084FEA88084746D6F800804FF0A3
:1007D0000F0909FA07F928EA09080CFA07F900E0F5
:1007E00088E048EA0908C6F80080D1F8048008F0DB
:1007F0008058B8F1805F7DD100BFDFF8CC81D8F898
:10080000188048F00108DFF8C091C9F81880C84680
:10081000D8F8188008F00108CDF8008000BF00BFAC
:100820004FEAB9384FEA920958F829504FEA8278CE
:100830004FEA18794FF00F0808FA09F825EA080579
:10084000DFF88881434502D14FF0000816E0DFF859
:100850008081434502D14FF001080FE0DFF8748139
:10086000434502D14FF0020808E0DFF86C814345B0
:1008700002D14FF0030801E04FF004084FEA8279FB
:100880004FEA197908FA09F848EA0505DFF84C81BA
:100890004FEA920948F82950D1F8048008F48038CA
:1008A000B8F5803F0AD1DFF83881D8F8008048EAEF
:1008B0000008DFF82C91C9F8008009E0DFF82081FA
:1008C000D8F8008028EA0008DFF81491C9F8008001
:1008D000D1F8048008F40038B8F5003F10D1DFF8F3
:1008E000008108F10408D8F8008048EA0008DFF821
:1008F000F09000E05AE009F10409C9F800800DE029
:10090000DFF8DC8008F10408D8F8008028EA000845
:10091000DFF8CC9009F10409C9F80080D1F804800F
:1009200008F48018B8F5801F0ED1DFF8B48008F104
:100930000808D8F8008048EA0008DFF8A49009F118
:100940000809C9F800800DE0DFF8948008F1080874
:10095000D8F8008028EA0008DFF8849009F1080937
:10096000C9F80080D1F8048008F40018B8F5001F19
:100970000ED1DFF86C8008F10C08D8F8008048EA46
:100980000008DFF85C9009F10C09C9F800800DE05F
:10099000DFF84C8008F10C08D8F8008028EA00083D
:1009A000DFF83C9009F10C09C9F80080521CD1F81D
:1009B000008028FA02F8B8F1000F7FF489AEBDE894
:1009C000F8870000000011100010024000080140EC
:1009D000000C0140001001400014014008000140DB
:1009E00000040140024693680B400BB1012000E077
:1009F000002070470AB1016101E00B0403617047F8
:100A000001480068704700000000002003480068AB
:100A10000349097808440149086070470000002034
:100A20000800002010B50848006840F01000064992
:100A30000860032000F098F8002000F007F800F0AC
:100A40002BF8002010BD00000020024070B50446C5
:100A50000E4800784FF47A71B1FBF0F00C49096848
:100A6000B1FBF0F5284600F085FC08B1012070BD0F
:100A7000102C07D200222146501E00F037F80548FE
:100A8000046001E00120F2E70020F0E70800002008
:100A90000C0000200400002008B500BF1148806948
:100AA00040F001000F4988610846806900F00100AC
:100AB000009000BF00BF00BF0846C06940F08050F2
:100AC000C8610846C06900F08050009000BF00BFB8
:100AD00000BF0549486820F0E06040F000704860C1
:100AE00000BF08BD00100240000001402DE9F05F8A
:100AF00080460D461646002701F0C6FB07463946DC
:100B00002A46334601F00700C0F1070ABAF1040F84
:100B100002D94FF0040A01E0C0F1070AD14600F102
:100B2000040ABAF1070F02D24FF0000A01E0A0F167
:100B3000030AD4464FF0010A0AFA09FAAAF1010A97
:100B40000AEA020A0AFA0CFA4FF0010B0BFA0CFB44
:100B5000ABF1010B0BEA030B4AEA0B0421464046BA
:100B600001F09AFBBDE8F09F00BF00F00702064BC2
:100B700019684FF6FF031940044B0B4343EA022167
:100B8000014B196000BF70470CED00E00000FA0552
:100B900070B504460D460CB9012070BD5A48006876
:100BA00000F00700A8420ED25748006820F0070066
:100BB0002843554908600846006800F00700A8422D
:100BC00001D00120E9E7207800F0020002281DD1C1
:100BD000207800F00400042805D14C48406840F417
:100BE000E0604A494860207800F00800082805D1F4
:100BF0004648406840F46050444948604348406873
:100C000020F0F000A168084340494860207800F0D7
:100C1000010078B36068012806D13C48006800F400
:100C2000003090B90120B8E76068022806D1374843
:100C3000006800F0007040B90120AEE7334800685A
:100C400000F0020008B90120A7E73048406820F012
:100C50000300616808432D494860FFF7D1FE06464E
:100C600009E0FFF7CDFE801B41F28831884202D9AE
:100C7000032092E707E02548406800F00C00616817
:100C8000B0EB810FEDD12048006800F00700A842CA
:100C90000ED91D48006820F0070028431A49086053
:100CA0000846006800F00700A84201D0012074E760
:100CB000207800F00400042807D11448406820F48C
:100CC000E060E168084311494860207800F00800BE
:100CD000082808D10D48406820F46050216940EA96
:100CE000C1000A49486000F03FF808494968C1F36B
:100CF0000311074A515CC84006490860064800686D
:100D0000FFF7A4FE002048E7002002400010024048
:100D1000182C00080C000020040000200148006886
:100D2000704700000C00002000B5FFF7F7FF0449F2
:100D30004968C1F30221034A515CC84000BD00006C
:100D400000100240282C000800B5FFF7E7FF044917
:100D50004968C1F3C221034A515CC84000BD00008C
:100D600000100240282C0008F0B585B00FF26C0C82
:100D70009CE8E01001A8A0E8E0101CA52D680095F3
:100D800000210022002300240020194D696801F091
:100D90000C05F5B1042D02D0082D19D101E015483C
:100DA00019E001ADC1F38346AC5D01F4803555B166
:100DB0000F4D6D68C5F340451DF805200D4D654389
:100DC000B5FBF2F302E00C4D04FB05F3184602E01C
:100DD00000BF084800BF00BF05B0F0BD0203040516
:100DE000060708090A0B0C0D0E0F10100102000077
:100DF0000010024000127A0000093D00F8B50446D8
:100E00000CB90120F8BD207800F00100002878D04E
:100E1000F848406800F00C0004280CD0F548406801
:100E200000F00C00082811D1F248406800F480302E
:100E3000B0F5803F0AD1EF48006800F40030002888
:100E40005FD0606800285CD10120DBE700BF6068EC
:100E5000B0F5803F06D1E748006840F48030E549AE
:100E6000086028E0606858B9E248006820F48030E3
:100E7000E04908600846006820F4802008601AE015
:100E80006068B0F5A02F0BD1DA48006840F48020EC
:100E9000D84908600846006840F4803008600AE0DD
:100EA000D448006820F48030D249086008460068C1
:100EB00020F48020086000BF606888B1FFF7A0FDC3
:100EC000054606E0FFF79CFD401B642801D903207E
:100ED00098E7C848006800F400300028F2D010E01D
:100EE000FFF78EFD054606E0FFF78AFD401B6428EC
:100EF00001D9032086E7BF48006800F400300028CD
:100F0000F2D1207800F00200022857D1B948406899
:100F100000F00C0050B1B748406800F00C00082801
:100F200018D1B448406800F4803098B9B1480068DE
:100F300000F0020020B12069012801D0012061E702
:100F4000AC48006820F0F800616940EAC100A94996
:100F5000086033E02069E8B10120A7490860FFF785
:100F60004FFD054606E0FFF74BFD401B022801D967
:100F7000032047E79F48006800F002000028F2D0F5
:100F80009C48006820F0F800616940EAC100994976
:100F9000086013E0002098490860FFF731FD05461E
:100FA00006E0FFF72DFD401B022801D9032029E7A9
:100FB0009048006800F002000028F2D1207800F08C
:100FC000080008282DD1A069B8B101208B4908601C
:100FD000FFF716FD054606E0FFF712FD401B02284D
:100FE00001D903200EE78348406A00F00200002880
:100FF000F2D0012000F0D8FF13E000207F49086004
:10100000FFF7FEFC054606E0FFF7FAFC401B02284E
:1010100001D90320F6E67748406A00F00200002874
:10102000F2D1207800F00400042873D10027714821
:10103000C06900F0805070B900BF6E48C06940F0D0
:1010400080506C49C8610846C06900F0805000902B
:1010500000BF00BF01276A48006800F48070B0B983
:101060006748006840F4807065490860FFF7C8FC75
:10107000054606E0FFF7C4FC401B642801D90320A5
:10108000C0E65F48006800F480700028F2D000BF1E
:10109000E068012806D15748006A40F00100554930
:1010A000086227E0E06858B95248006A20F0010061
:1010B000504908620846006A20F00400086219E0FE
:1010C000E06805280BD14B48006A40F0040049490C
:1010D00008620846006A40F0010008620AE04548DC
:1010E000006A20F00100434908620846006A20F0C7
:1010F0000400086200BFE068A0B1FFF781FC05466C
:1011000009E0FFF77DFC401B41F28831884202D99B
:10111000032077E622E03748006A00F0020000284A
:10112000EFD012E0FFF76CFC054608E0FFF768FC23
:10113000401B41F28831884201D9032062E62D48E4
:10114000006A00F002000028F0D1012F05D12948E3
:10115000C06920F080502749C86100BFE069C8B36A
:101160002448406800F00C00082860D0E06902289C
:1011700048D1002020490866FFF742FC054606E0FA
:10118000FFF73EFC401B022801D903203AE619482C
:10119000006800F000700028F2D1206AB0F5803FAE
:1011A00007D11448406820F40030A1680843114971
:1011B0004860D4E9080108430E49496821F47411D4
:1011C00008430C49486001200B490866FFF718FCEA
:1011D000054607E03DE0FFF713FC401B022801D95C
:1011E00003200FE60348006800F000700028F2D0EA
:1011F0002FE0000000100240000042428004424202
:1012000000700040002014490866FFF7F9FB05460E
:1012100006E0FFF7F5FB401B022801D90320F1E5AA
:101220000E48006800F000700028F2D111E0E0697B
:10123000012800D1E6E50948466806F48031206AB5
:10124000814204D106F47011606A814201D001200C
:10125000D8E50020D6E50000000042420010024020
:1012600010B504460CB9012010BD606A00B900BF7A
:101270000021A16294F8510028B9002084F85000A0
:10128000204600F031F8022084F851002068006800
:1012900020F0400021680860D4E901010843E168BA
:1012A00008432169084361690843218B01F40071F7
:1012B0000843E1690843216A0843A16A0843216899
:1012C00008600421A06901EA104021684860206894
:1012D000C06920F400602168C861002060650120B9
:1012E00084F851000020BFE710B586B00446002006
:1012F00002900390049005901B492068884230D1E9
:1013000000BF1A48C06940F480401849C8610846C7
:10131000C06900F48040019000BF00BF00BF0846D4
:10132000806940F0080088610846806900F0080084
:10133000019000BF00BF4FF42040029002200390B4
:101340000320059002A90A48FFF7BCF94FF480403A
:101350000290002003900120049002A90448FFF7A6
:10136000B1F906B010BD0000003800400010024086
:10137000000C014070B504462546681EB0F1807F20
:1013800001D301200FE0681E4FF0E02148610F21DA
:101390004FF0FF3000F080FF00204FF0E021886127
:1013A00007200861002070BD10B504460CB901206B
:1013B00010BDA06900B100E000BF94F8390028B961
:1013C000002084F83800204600F028F8242084F813
:1013D00039002068C06820F400502168C8602046A9
:1013E00000F05AFE2068006920F4904021680861EE
:1013F0002068406920F02A00216848612068C068A0
:1014000040F400502168C8600020E063202084F888
:10141000390084F83A000020CAE7000010B586B011
:101420000446002002900390049005901A49206819
:1014300088422ED100BF1948806940F48040174986
:1014400088610846806900F48040019000BF00BFB9
:1014500000BF0846806940F0040088610846806942
:1014600000F00400019000BF00BF48150290022068
:1014700003900320059002A90948FFF723F94FF4D0
:101480008060029000200390049002A90448FFF7B6
:1014900019F906B010BD00000038014000100240EC
:1014A0000008014000BFFEE72DE9F84307468846E3
:1014B00015461C464FF000090026002020804146BA
:1014C000384600F0E9FC0A20FFF7E8F800F0AAFB34
:1014D00000F4804010B94FF0FF391BE00A20FFF7FD
:1014E000DDF800F0A4FBC0F30800061E02D16FF087
:1014F00001090FE00A208DF8000000208DF801009E
:101500000221684600F0C8FC3146284600F02AFC5B
:10151000268000BF024800F053FB4846BDE8F88330
:10152000FFFF0F008EB000240026202106A8FEF742
:1015300010FE0020059045A103C9CDE90301052552
:1015400000270020029000F055FC00BF41A001F0F0
:1015500027FB012000F0E2FB00F058FB40210020B7
:1015600000F002FD6FF04001002000F0DFFC6FF0A2
:101570000101192000F0DAFC6FF00101122000F0E7
:10158000D5FC364800F01CFB6FF00701002000F08E
:10159000CDFC0321002000F0E7FC00F019FA071E43
:1015A00003D12FA001F0FCFA49E0394631A001F047
:1015B000F7FA02A905A800F0CFF8061E04D03146BC
:1015C00030A001F0EDFA3AE09DF808109DF8170000
:1015D000CDE900019DF816309DF815209DF81410F6
:1015E00033A001F0DDFA2B46602203A905A800F024
:1015F0007DF9061E04D0314639A001F0D1FA1EE073
:1016000042A001F0CDFA06A9284600F0B1F9061E65
:1016100004D0314644A001F0C3FA10E04AA001F022
:10162000BFFA002405E006A8015D49A001F0B8FA60
:10163000641C102CF7DB34A001F0B2FA00BF00F0FC
:10164000D9FA4FF47A70FFF729F87FE7FFFFFFFF21
:10165000FFFF00000D0A0D0A00000000FFFF0F0051
:10166000205265717565737441204661696C6564CB
:10167000210D0A0020415451413A253034580D0AB9
:1016800000000000204D696661726520416E74693A
:10169000636F6C6C6973696F6E204661696C656419
:1016A0002C457272436F64653A25640D0A00000090
:1016B00020554944203A25303258253032582530BB
:1016C000325825303258202020200D0A2053414B1B
:1016D000203A25303258202020200D0A000000003A
:1016E000204D69666172652041757468656E746924
:1016F00063617465204661696C65642C4572726F24
:1017000072436F64653A25640D0A0000204D6966D6
:101710006172652041757468656E74696361746592
:10172000204F4B2E0D0A0000205265616420426C50
:101730006F636B204661696C65642C457272436F00
:1017400064653A25640D0A00424C4F434B3A000051
:101750002530325800000000F0B589B005460E462D
:101760004FF0FF3700200890002400BF09222146D7
:10177000641C0DF8012000222146641C0DF8012094
:1017800093222146641C0DF8012020222146641C6E
:101790000DF8012000BFE1B208AB04AA6846FFF7CC
:1017A00083FE00285CD1BDF82000052859D104989B
:1017B0002860002409222146641C0DF80120002223
:1017C0002146641C0DF8012093222146641C0DF86B
:1017D000012070222146641C0DF801202A78214640
:1017E000641C0DF801206A782146641C0DF8012064
:1017F000AA782146641C0DF80120EA782146641C71
:101800000DF80120287869784840A9784840E9789F
:1018100041402246641C0DF802100121192000F0FD
:10182000A3FB0121122000F09FFBE1B208AB04AA48
:101830006846FFF739FE38B9BDF8200020B19DF8A1
:1018400010003070002701E06FF001076FF0010118
:10185000192000F06BFB6FF00101122000F066FB15
:1018600041E0002409222146641C0DF801200022D9
:101870002146641C0DF8012093222146641C0DF8BA
:101880000120BDF82000012802D0022829D110E053
:101890009DF810002030C2B22046611C8CB20DF8B9
:1018A00000209DF810202046611C8CB20DF800200D
:1018B00071E79DF811003030C2B22046611C8CB235
:1018C0000DF800209DF810202046611C8CB20DF808
:1018D00000209DF811202046611C8CB20DF80020DC
:1018E00059E700BF00BF384609B0F0BDF0B585B07C
:1018F00005460C4616461F460020049018A30FCB41
:101900008DE80F0020788DF8010060788DF80200D6
:10191000A0788DF80300E0788DF8040020798DF828
:10192000050060798DF806008DF807608DF8087065
:1019300028788DF8090068788DF80A00A8788DF865
:101940000B00E8788DF80C000D21684600F0A4FA31
:10195000012104A800F006FA9DF8100005B0F0BDC2
:101960000C0000000000000000000000000000006B
:10197000F0B589B004460F46002514A00068009019
:10198000E0B28DF8010000260221684600F084FADA
:101990000220FEF783FE00F04AF9C0F30800061E9D
:1019A00001D1451E0EE00A208DF8000000208DF8C0
:1019B00001000221684600F06FFA314601A800F0EC
:1019C000D1F900BF284609B0F0BD0000300000008A
:1019D00010B58AB000240020099009208DF800007D
:1019E00007208DF8010026208DF8020009AB01AA1E
:1019F00003216846FFF758FD48B9BDF824000228C6
:101A000005D19DF804009DF8051040EA0124204608
:101A10000AB010BD00B585B000200190029003907F
:101A2000049000BF3A48806940F01000384988614E
:101A30000846806900F01000009000BF00BF00BFA2
:101A40000846806940F0200088610846806900F0FF
:101A50002000009000BF00BF00BF0846806940F032
:101A6000040088610846806900F00400009000BF0F
:101A700000BF00BF0846806940F008008861084642
:101A8000806900F00800009000BF00BF01224FF401
:101A900081512048FEF7AEFF4FF6FF700190032002
:101AA000029001A91C48FEF70DFE49F6FF100190B7
:101AB0000320029001A91948FEF704FE40F6D770F2
:101AC00001900320029001A91248FEF7FBFD4FF49C
:101AD000815001900120029003900320049001A9FD
:101AE0000C48FEF7EFFD042001900320029001A9AD
:101AF0000B48FEF7E7FD082001900020029001202E
:101B0000039001A90348FEF7DDFD05B000BD00000C
:101B100000100240000C014000100140000801408C
:101B20000014014010B50E480E4908604FF4827051
:101B3000486000210B488160C160016141614FF440
:101B4000007181613821C1610021016241628162BD
:101B50000A21C162FFF784FB08B1FEF79EFD10BDAC
:101B6000003800401000002010B50B480B490860F9
:101B70004FF4E1304860002108488160C160016194
:101B80000C21416100218161C161FFF70DFC08B1A9
:101B9000FEF783FD10BD0000003801406800002002
:101BA00000BFFEE77047000010B508210348FEF7AC
:101BB00019FF012800D110BD0020FCE7000C0140F6
:101BC00070B504464FF0FF352146032000F094F92C
:101BD00000F028F8204000B90025284670BD00001C
:101BE00010B5012211030248FEF704FF10BD0000EA
:101BF000000C014008B504A000680090022168466E
:101C000000F04AF908BD00001700000008B504A064
:101C1000006800900221684600F03EF908BD00000F
:101C20001600000010B5022000F0CEF810BD10B56F
:101C3000132000F0C9F810BD1CB5002001900090E1
:101C400000F0D8F8022201A9122000F0A7F8BDF890
:101C500004004FF6FF71884205D11EA000F0A0FFDE
:101C60004FF0FF301CBDBDF80400C2B2010A1FA036
:101C700000F096FF6FF00401012000F057F92649AB
:101C8000032000F039F9BDF80400B0F5427F1EDBF7
:101C900001226946E82000F081F89DF8000000F07C
:101CA000010028B19DF8000000F0060002280ED0C7
:101CB0009DF8000000F0F90000909DF8000040F051
:101CC0000300009001226946E82000F0FFF80020A0
:101CD000C8E7000020706E3531383020696E6974B5
:101CE000206661696C6564210D0A000020706E3504
:101CF00031383020696E6974206F6B2C6669726DA3
:101D0000776172652076657273696F6E3A25642E0D
:101D100025640D0A00000000FFFF0F0038B50446DF
:101D20000FA000680090012C04D0022C09D0032CD5
:101D30000FD10DE000208DF8010080208DF8020009
:101D400008E00D208DF801008D208DF8020001E0E3
:101D500000E000BF00BF0321684600F09DF838BDD9
:101D6000110000002DE9F04104460D4600262746EB
:101D700000BFFFF719FF0028FBD100F083F8002611
:101D800005E0FF2000F052F807F8010B761CAE4288
:101D9000F7D3FFF725FFBDE8F0810000F8B5064650
:101DA0000D46144607A0006800908DF801608DF87C
:101DB00002400321684600F06FF821462846FFF7ED
:101DC000D1FFF8BD070000001CB5044600200190BB
:101DD00007A0006800908DF801400221684600F0DD
:101DE0005BF8042101A8FFF7BDFF01981CBD0000AE
:101DF0000400000010B5012220210B48FEF7FAFD77
:101E00000220FEF74BFC002220210748FEF7F2FDDE
:101E10000220FEF743FC012220210348FEF7EAFDE1
:101E20000220FEF73BFC10BD000C014001460022E1
:101E300006E0501CC0B20246C82801DD00207047F1
:101E40000F4800688068C0F340000028F1D00C48BB
:101E50000068C160002206E0501CC0B20246C828DB
:101E600001DD0020EBE706480068806800F0010013
:101E70000028F1D002480068C068C0B2DFE7000067
:101E80001000002010B500224FF480510148FEF7E9
:101E9000B1FD10BD000C01402DE9F04104460D4696
:101EA0000026274600BFFFF77FFE0028FBD1FFF783
:101EB000E9FF002604E017F8010BFFF7B7FF761CD7
:101EC000AE42F8D3FFF78CFEBDE8F081F8B50646C8
:101ED0000D46144607A0006800908DF801608DF84B
:101EE000024003216846FFF7D7FF21462846FFF747
:101EF000D3FFF8BD060000007CB505460C46002067
:101F0000009001908DF80150E0B28DF80200200A97
:101F10008DF80300200C8DF80400200E8DF80500CC
:101F200006216846FFF7B8FF7CBD00007CB505467A
:101F30000C460BA103C9CDE900018DF80150E0B2B8
:101F40008DF80200200A8DF80300200C8DF80400A3
:101F5000200E8DF8050006216846FFF79DFF7CBD29
:101F600002000000000000007CB505460C460BA1F5
:101F700003C9CDE900018DF80150E0B28DF80200EF
:101F8000200A8DF80300200C8DF80400200E8DF837
:101F9000050006216846FFF77FFF7CBD01000000B9
:101FA000000000007047000008B508490968C9082A
:101FB0004FF47A72B1FBF2F14143009100BF00BFD0
:101FC00000994A1E00920029F9D108BD0C0000209A
:101FD000704710B5FEF71AFD10BD00B58FB028216F
:101FE00005A8FEF7B6F814216846FEF7B2F80120FE
:101FF000059000040690002007900120099002201F
:102000000C90C1030D914FF4E0110E9105A8FEF75D
:10201000F5FE08B1FEF741FB0F2000900220019071
:10202000002002904FF48060039000200490022171
:102030006846FEF7ADFD08B1FEF72FFB0FB000BDFF
:102040001148006840F001000F49086008464068E8
:102050000E4908400C494860084600680C49084091
:10206000094908600846006820F480200860084696
:10207000406820F4FE0048604FF41F008860C803E9
:102080000449086070470000001002400000FFF89B
:10209000FFFFF6FE08ED00E070B50446216809690F
:1020A00021F44051E2681143226811612269A1685C
:1020B0001143626941EA02052168C96841F20C6274
:1020C000914329432268D1602168496921F4407114
:1020D000A269114322685161564A2168914254D144
:1020E000FEF732FE00EBC00101EB001162689200C6
:1020F000B1FBF2F100EBC00202EB001263689B003F
:10210000B2FBF3F26423B2FBF3F202EBC20303EB84
:102110000212A1EB8201322202EB01116422B1FB17
:10212000F2F101F0F00100EBC00202EB0012636873
:102130009B00B2FBF3F26423B2FBF3F201EB021259
:1021400000EBC00101EB001163689B00B1FBF3F1F0
:1021500000EBC00303EB00136668B600B3FBF6F3B5
:102160006426B3FBF6F303EBC30606EB0313A1EB04
:102170008301322303EB01116423B1FBF3F101F07E
:102180000F0111442268916053E0FEF7CDFD00EB92
:10219000C00101EB001162689200B1FBF2F100EBAB
:1021A000C00202EB001263689B00B2FBF3F26423EF
:1021B000B2FBF3F202EBC20303EB0212A1EB8201CA
:1021C000322202EB01116422B1FBF2F101F0F001C5
:1021D00000EBC00202EB001263689B00B2FBF3F25B
:1021E0006423B2FBF3F201EB021200EBC00101EB3E
:1021F000001163689B00B1FBF3F100EBC00303EB3C
:1022000000136668B600B3FBF6F36426B3FBF6F37F
:1022100003EBC30606EB0313A1EB8301322303EBAD
:1022200001116423B1FBF3F101F00F0111442268A5
:10223000916070BD0038014030B50B460AE000BF28
:1022400004682468C4F3C014002CF9D013F8014BBF
:1022500005686C60141EA2F10102F0D130BD00BF10
:10226000FEE7000037B514460846064B6A4621468D
:1022700000F0F8F804466946002000F08AFC204689
:102280003EBD0000932B000802480068C0F3022006
:10229000704700000CED00E010B5002804DB0A07D1
:1022A000130E054A135406E00A07140E034A00F001
:1022B0000F031B1FD45410BD00E400E018ED00E034
:1022C00002E008C8121F08C1002AFAD170477047FF
:1022D000002001E001C1121F002AFBD1704700005D
:1022E0002DE9FF5F82B00021DDE90430020DDDF849
:1022F00040B0034318D044F61050A2F2FF324243DC
:102300001514119801281FD0A5EB0B00401C5FEAA3
:10231000000A4FF000064E4FDFF83891B0465046A5
:1023200015D5CAF1000413E0119801244AA301282D
:1023300001D16FEA0B010298119AC0E90031C0E99E
:10234000024206B0BDE8F09FCBF10000DFE7044693
:102350000021404A491842EB0450CDE9001012E038
:10236000E00707D032463B4640464946FDF7F1FFBD
:102370008046894632463B4610461946FDF7E9FF3E
:1023800006460F466410002CEAD1DDE90401DDE9C0
:102390000023BAF1000F06DAFDF7DBFF42464B4699
:1023A000FDF7D7FF05E0FEF746F842464B46FEF73D
:1023B00042F804460E460022284BFEF7C3F803D825
:1023C0004FF0FF30014607E00022254B2046314602
:1023D000FDF718FFFEF79EF8102409E0002C0ADB39
:1023E0000A220023FDF7DDFE039B30321A55641EDE
:1023F00050EA0102F2D1641C039AC4F1110314449F
:10240000119A012A03D0012208430DD10AE00843A2
:1024100004D000204FF0110B119072E7A3EB0B05D5
:102420006D1E0DE05B4504DD4FF0000205F1010576
:1024300004E003DA4FF00002A5F10105002AECD018
:1024400002981199C0E90231C0E9004579E700001E
:10245000000014400000F03F300000000000F04396
:102460000000E03F2DE9FF4F95B09B4689460646A8
:1024700000250FE2252877D100242746F84A0121BC
:10248000059400E0044316F8013F203B01FA03F0F5
:102490001042F7D130782A2811D06FF02F0330780E
:1024A000A0F13002092A16D8059A44F0020402EB82
:1024B000820203EB42021044761C0590EFE759F8C4
:1024C000042B0592002A03DA504244F4005405908C
:1024D00044F00204761C30782E2816D116F8010F2D
:1024E00044F004042A280DD06FF02F023078A0F1B8
:1024F0003003092B09D807EB870302EB4303C71806
:10250000761CF3E759F8047B761C30786C280FD0E2
:1025100006DC4C2817D068280DD06A2814D104E0B6
:10252000742810D07A280FD10DE044F400140AE08A
:1025300044F4801401E044F440147278824202D1E1
:1025400004F58014761C761C307866280BD013DCDA
:10255000582877D009DC002875D04528F6D04628C1
:10256000F4D047281AD19DE118E0632835D06428BB
:1025700079D0652812D195E1702873D008DC6728DE
:10258000F1D069286FD06E280DD06F2806D1B5E044
:1025900073282CD0752875D0782874D05A4617998E
:1025A00090476D1C75E1C4F30250022809D003283E
:1025B0000DD0D9F8001004280DD00D6009F10409E0
:1025C00067E1D9F80010EA17C1E90052F6E7D9F837
:1025D00000100D80F2E70D70F0E719F8041B8DF87C
:1025E000001000208DF80100EA46012003E059F8B0
:1025F00004AB4FF0FF3061074FF0000102D40DE053
:1026000008F101018846B9420FDA8045F8DB1AF873
:1026100008100029F4D108E008F101018846814240
:10262000FADB1AF808100029F6D105985B46A0EBF2
:10263000080721463846179A00F094FA284400EB20
:10264000080507E04DE029E10DE01AF8010B5A46B4
:1026500017999047B8F10108F7D25B4621463846F2
:10266000179A13E142E00A220092C4F302524FF09B
:10267000000A022A08D059F804CB032A4FEAEC7169
:102680000AD00DE029E02AE009F1070121F0070254
:10269000F2E802C1914609E00FFA8CFC4FEAEC71B6
:1026A000042A03D14FFA8CFC4FEAEC71002907DAB7
:1026B0000A460021DCF1000C61EB02012D2202E050
:1026C000220504D52B228DF80420012203E0E20725
:1026D00001D02022F7E7904659E00A2102E01022BB
:1026E0000DE010214FF0000A00910BE010224FF096
:1026F000000A44F004040827009203E008224FF087
:10270000000A0092C4F30252022A05D059F804CB01
:102710000021032A08D009E009F1070121F007028E
:10272000F2E802C1914605E01FFA8CFC042A01D1AF
:102730000CF0FF0C4FF00008220728D5702806D0B7
:10274000009B83F0100353EA0A0305D00EE04022F9
:102750008DF80420012208E05CEA010206D0302254
:102760008DF804208DF8050002229046009B83F02E
:10277000080353EA0A030AD15CEA010201D16207A5
:1027800005D530228DF804204FF001087F1E58280F
:1027900004D034A003900EA802900DE036A0F9E713
:1027A00053466046009AFDF7FCFC84460398825C21
:1027B0000298401E029002705CEA0100F0D102987B
:1027C00006A9081A00F1200A600702D524F4803413
:1027D00000E00127574502DDA7EB0A0000E00020DA
:1027E00000EB0A01009005984144401A0590E0036F
:1027F00006D45B462146179A059800F0B3F90544C4
:10280000002706E001A85A46C05D179990476D1C45
:102810007F1C4745F6DBE0030CD55B462146179A43
:10282000059800F09FF9054404E030205A461799B6
:1028300090476D1C0099481E00900029F5DC08E0C7
:10284000029802995A460078491C029117999047BC
:102850006D1CBAF10001AAF1010AF1DC65E100008A
:102860000928010030313233343536373839616266
:10287000636465660000000030313233343536372A
:1028800038394142434445460000000000F058F901
:102890000544761C307800287FF4ECAD19B028464A
:1028A000BDE8F08F620700D4062709F1070222F085
:1028B000070CFCE80223E14603F000485FEA080C3D
:1028C00002D00FF2702C0DE05FEA045C02D50FF22B
:1028D000682C07E05FEAC47C02D00FF2602C01E0B4
:1028E000AFF2700C4FF0FF3823F00043CDF850C02A
:1028F00065280CD006DC452809D046281DD047287D
:102900003DD13DE0662818D067287ED138E000210F
:10291000112F01DB112000E0781CCDE9000106A990
:102920000EA8FFF7DDFCDDE90F010E9A03910021EF
:10293000009207F1010A04914DE04FF0004000972A
:10294000CDE9011006A90EA8FFF7CAFCDDE90F02C8
:1029500003920E9B11990022DDF80CA000930492C3
:1029600011B9791C00EB010AB7EB0A0004D4C0F1DD
:10297000FF3007F1010A0490AAEB0700019044E040
:10298000012F00DA01270021112F01DD112000E0C5
:102990003846CDE9000106A90EA8FFF7A1FCDDE944
:1029A0000F010E9A0391002104910092BA4621076B
:1029B0000CD40399514500DA8A46BAF1010F05DDBE
:1029C000009AAAF10101515C302908D0B84202DA1C
:1029D00010F1040F06DA0121CDE9011015E0AAF18A
:1029E0000101E9E7002805DC049901440491AAEB00
:1029F000000102E0411C514500DD8A460499401A5D
:102A0000401C01904FF000400290200704D4019830
:102A1000504501DBCDF8048000208DF84F0002986E
:102A20000DF14F07B0F1004F25D02B200E900298EA
:102A30004FF0020800280CDA404202902D200E9040
:102A400007E00A210298FDF796FB3031029007F863
:102A5000011DB8F10001A8F10108F2DC029800287C
:102A6000EFD1791E0E980870307800F0200040F009
:102A7000450007F8020D12A8C01B00F107081498C2
:102A8000007800B1012000EB0A01019801EBE07130
:102A900005984144401A401E0590E00306D45B4669
:102AA0002146179A059800F05DF8054414980078BF
:102AB00018B15A46179990476D1CE00324D55B4620
:102AC0002146179A059800F04DF805441CE004983B
:102AD000002807DBDDE90301884203DD0098405C44
:102AE000179901E0179930205A469047049805F14C
:102AF0000105401C04900198401E019004D12E2035
:102B00005A46179990476D1CBAF10001AAF1010AC3
:102B1000DDDC05E017F8010B5A46179990476D1C4C
:102B2000B8F10001A8F10108F4DC5B462146179AD0
:102B30000598ABE62D0000002B00000020000000EF
:102B40002DE9F041044600251E461746880404D4AA
:102B500005E039462020B0476D1C641EF9D5284693
:102B6000BDE8F0812DE9F041044600251E4690465F
:102B7000C80301D5302700E02027880404D505E0EC
:102B800041463846B0476D1C641EF9D52846BDE85D
:102B9000F0810A68531C0B6010707047704700008A
:102BA0000FB410B5A2B025A8019002A8019A2499EB
:102BB000FFF758FB0020019002A8FDF7D5FA044664
:102BC000224602A90348FFF737FB22B010BC5DF88C
:102BD00014FB000068000020FDF724FFFFF7FDF95B
:102BE000FEF718FFFEF79EFFFEF7BEFF09480068DC
:102BF000006840F04000074909680860FFF7CEFF11
:102C000000BFFFF719F80028FBD1FEF78BFC00BFCF
:102C1000FEE700001000002000000000000000009F
:102C20000102030406070809000000000102030472
:102C3000502C00080000002010000000C0220008F6
:102C4000602C00081000002098040000D02200082A
:102C50000000000010000000010000000024F4004B
:04000005080000ED02
:00000001FF
